{
  "contractName": "Contract",
  "abi": [
    {
      "constant": true,
      "inputs": [],
      "name": "counter",
      "outputs": [
        {
          "name": "",
          "type": "uint256"
        }
      ],
      "payable": false,
      "stateMutability": "view",
      "type": "function"
    },
    {
      "inputs": [],
      "payable": false,
      "stateMutability": "nonpayable",
      "type": "constructor"
    },
    {
      "constant": false,
      "inputs": [],
      "name": "incrementCounter",
      "outputs": [
        {
          "name": "",
          "type": "uint256"
        }
      ],
      "payable": false,
      "stateMutability": "nonpayable",
      "type": "function"
    },
    {
      "constant": true,
      "inputs": [],
      "name": "getName",
      "outputs": [
        {
          "name": "",
          "type": "string"
        }
      ],
      "payable": false,
      "stateMutability": "pure",
      "type": "function"
    }
  ],
  "bytecode": "0x60606040526000600155341561001457600080fd5b336000806101000a81548173ffffffffffffffffffffffffffffffffffffffff021916908373ffffffffffffffffffffffffffffffffffffffff160217905550610235806100636000396000f300606060405260043610610057576000357c0100000000000000000000000000000000000000000000000000000000900463ffffffff16806317d7de7c1461005c5780635b34b966146100ea57806361bc221a14610113575b600080fd5b341561006757600080fd5b61006f61013c565b6040518080602001828103825283818151815260200191508051906020019080838360005b838110156100af578082015181840152602081019050610094565b50505050905090810190601f1680156100dc5780820380516001836020036101000a031916815260200191505b509250505060405180910390f35b34156100f557600080fd5b6100fd61017f565b6040518082815260200191505060405180910390f35b341561011e57600080fd5b6101266101ef565b6040518082815260200191505060405180910390f35b6101446101f5565b6040805190810160405280600581526020017f48656c6c6f000000000000000000000000000000000000000000000000000000815250905090565b60003373ffffffffffffffffffffffffffffffffffffffff166000809054906101000a900473ffffffffffffffffffffffffffffffffffffffff1673ffffffffffffffffffffffffffffffffffffffff161415156101dc57600080fd5b6001805401600181905550600154905090565b60015481565b6020604051908101604052806000815250905600a165627a7a72305820735f8c62e32ec0b1527932e1fcc488fbfa7571ea7b57ae9437761fa64316e4f60029",
  "source": "pragma solidity ^0.4.17;\r\n\r\n\r\ncontract Base {\r\n    address _owner;\r\n    uint public counter = 0;\r\n}\r\n\r\n\r\ncontract Ownable is Base {\r\n    modifier isOwner {\r\n        require(_owner == msg.sender);\r\n        _;\r\n    }\r\n}\r\n\r\ncontract Contract is Ownable {\r\n    \r\n    function Contract () public {\r\n        _owner = msg.sender;\r\n    }\r\n\r\n    function incrementCounter () public isOwner returns(uint) {\r\n        counter = counter + 1;\r\n        return counter;\r\n    }\r\n\r\n    function getName () pure public returns (string) {\r\n        return \"Hello\";\r\n    }\r\n}",
  "sourcePath": "C:\\Users\\rjmacarthy\\Desktop\\Development\\typechain-test\\contracts\\Contract.sol",
  "compiler": {
    "name": "solc",
    "version": "0.4.19+commit.c4cbbb05.Emscripten.clang"
  },
  "schemaVersion": "2.0.0",
  "updatedAt": "2018-05-04T15:49:22.627Z"
}